8=FIX.4.2|9=118|35=D|49=ONIXS|56=CME|34=2|52=20250501-09:20:52.111|11=983532-3|21=1|38=100|55=NVDA|40=
2|44=135.5|54=1|60=20240501-09:20:52.004|10=017|